{
  "contractName": "DappTokenCrowdsale",
  "abi": [
    {
      "constant": true,
      "inputs": [
        {
          "name": "_operator",
          "type": "address"
        },
        {
          "name": "_role",
          "type": "string"
        }
      ],
      "name": "checkRole",
      "outputs": [],
      "payable": false,
      "stateMutability": "view",
      "type": "function"
    },
    {
      "constant": true,
      "inputs": [],
      "name": "hasClosed",
      "outputs": [
        {
          "name": "",
          "type": "bool"
        }
      ],
      "payable": false,
      "stateMutability": "view",
      "type": "function"
    },
    {
      "constant": true,
      "inputs": [],
      "name": "ROLE_WHITELISTED",
      "outputs": [
        {
          "name": "",
          "type": "string"
        }
      ],
      "payable": false,
      "stateMutability": "view",
      "type": "function"
    },
    {
      "constant": true,
      "inputs": [
        {
          "name": "_operator",
          "type": "address"
        },
        {
          "name": "_role",
          "type": "string"
        }
      ],
      "name": "hasRole",
      "outputs": [
        {
          "name": "",
          "type": "bool"
        }
      ],
      "payable": false,
      "stateMutability": "view",
      "type": "function"
    },
    {
      "constant": false,
      "inputs": [
        {
          "name": "_operators",
          "type": "address[]"
        }
      ],
      "name": "removeAddressesFromWhitelist",
      "outputs": [],
      "payable": false,
      "stateMutability": "nonpayable",
      "type": "function"
    },
    {
      "constant": false,
      "inputs": [
        {
          "name": "_operator",
          "type": "address"
        }
      ],
      "name": "removeAddressFromWhitelist",
      "outputs": [],
      "payable": false,
      "stateMutability": "nonpayable",
      "type": "function"
    },
    {
      "constant": true,
      "inputs": [],
      "name": "rate",
      "outputs": [
        {
          "name": "",
          "type": "uint256"
        }
      ],
      "payable": false,
      "stateMutability": "view",
      "type": "function"
    },
    {
      "constant": true,
      "inputs": [],
      "name": "cap",
      "outputs": [
        {
          "name": "",
          "type": "uint256"
        }
      ],
      "payable": false,
      "stateMutability": "view",
      "type": "function"
    },
    {
      "constant": true,
      "inputs": [],
      "name": "weiRaised",
      "outputs": [
        {
          "name": "",
          "type": "uint256"
        }
      ],
      "payable": false,
      "stateMutability": "view",
      "type": "function"
    },
    {
      "constant": true,
      "inputs": [
        {
          "name": "",
          "type": "address"
        }
      ],
      "name": "contributions",
      "outputs": [
        {
          "name": "",
          "type": "uint256"
        }
      ],
      "payable": false,
      "stateMutability": "view",
      "type": "function"
    },
    {
      "constant": true,
      "inputs": [],
      "name": "closingTime",
      "outputs": [
        {
          "name": "",
          "type": "uint256"
        }
      ],
      "payable": false,
      "stateMutability": "view",
      "type": "function"
    },
    {
      "constant": true,
      "inputs": [],
      "name": "capReached",
      "outputs": [
        {
          "name": "",
          "type": "bool"
        }
      ],
      "payable": false,
      "stateMutability": "view",
      "type": "function"
    },
    {
      "constant": true,
      "inputs": [],
      "name": "wallet",
      "outputs": [
        {
          "name": "",
          "type": "address"
        }
      ],
      "payable": false,
      "stateMutability": "view",
      "type": "function"
    },
    {
      "constant": false,
      "inputs": [],
      "name": "renounceOwnership",
      "outputs": [],
      "payable": false,
      "stateMutability": "nonpayable",
      "type": "function"
    },
    {
      "constant": false,
      "inputs": [
        {
          "name": "_operator",
          "type": "address"
        }
      ],
      "name": "addAddressToWhitelist",
      "outputs": [],
      "payable": false,
      "stateMutability": "nonpayable",
      "type": "function"
    },
    {
      "constant": true,
      "inputs": [],
      "name": "owner",
      "outputs": [
        {
          "name": "",
          "type": "address"
        }
      ],
      "payable": false,
      "stateMutability": "view",
      "type": "function"
    },
    {
      "constant": true,
      "inputs": [
        {
          "name": "_operator",
          "type": "address"
        }
      ],
      "name": "whitelist",
      "outputs": [
        {
          "name": "",
          "type": "bool"
        }
      ],
      "payable": false,
      "stateMutability": "view",
      "type": "function"
    },
    {
      "constant": true,
      "inputs": [],
      "name": "investorMinCap",
      "outputs": [
        {
          "name": "",
          "type": "uint256"
        }
      ],
      "payable": false,
      "stateMutability": "view",
      "type": "function"
    },
    {
      "constant": true,
      "inputs": [],
      "name": "openingTime",
      "outputs": [
        {
          "name": "",
          "type": "uint256"
        }
      ],
      "payable": false,
      "stateMutability": "view",
      "type": "function"
    },
    {
      "constant": false,
      "inputs": [
        {
          "name": "_operators",
          "type": "address[]"
        }
      ],
      "name": "addAddressesToWhitelist",
      "outputs": [],
      "payable": false,
      "stateMutability": "nonpayable",
      "type": "function"
    },
    {
      "constant": false,
      "inputs": [
        {
          "name": "_beneficiary",
          "type": "address"
        }
      ],
      "name": "buyTokens",
      "outputs": [],
      "payable": true,
      "stateMutability": "payable",
      "type": "function"
    },
    {
      "constant": true,
      "inputs": [],
      "name": "investorHardCap",
      "outputs": [
        {
          "name": "",
          "type": "uint256"
        }
      ],
      "payable": false,
      "stateMutability": "view",
      "type": "function"
    },
    {
      "constant": false,
      "inputs": [
        {
          "name": "_newOwner",
          "type": "address"
        }
      ],
      "name": "transferOwnership",
      "outputs": [],
      "payable": false,
      "stateMutability": "nonpayable",
      "type": "function"
    },
    {
      "constant": true,
      "inputs": [],
      "name": "token",
      "outputs": [
        {
          "name": "",
          "type": "address"
        }
      ],
      "payable": false,
      "stateMutability": "view",
      "type": "function"
    },
    {
      "inputs": [
        {
          "name": "_rate",
          "type": "uint256"
        },
        {
          "name": "_wallet",
          "type": "address"
        },
        {
          "name": "_token",
          "type": "address"
        },
        {
          "name": "_cap",
          "type": "uint256"
        },
        {
          "name": "_openingTime",
          "type": "uint256"
        },
        {
          "name": "_closingTime",
          "type": "uint256"
        }
      ],
      "payable": false,
      "stateMutability": "nonpayable",
      "type": "constructor"
    },
    {
      "payable": true,
      "stateMutability": "payable",
      "type": "fallback"
    },
    {
      "anonymous": false,
      "inputs": [
        {
          "indexed": true,
          "name": "purchaser",
          "type": "address"
        },
        {
          "indexed": true,
          "name": "beneficiary",
          "type": "address"
        },
        {
          "indexed": false,
          "name": "value",
          "type": "uint256"
        },
        {
          "indexed": false,
          "name": "amount",
          "type": "uint256"
        }
      ],
      "name": "TokenPurchase",
      "type": "event"
    },
    {
      "anonymous": false,
      "inputs": [
        {
          "indexed": true,
          "name": "operator",
          "type": "address"
        },
        {
          "indexed": false,
          "name": "role",
          "type": "string"
        }
      ],
      "name": "RoleAdded",
      "type": "event"
    },
    {
      "anonymous": false,
      "inputs": [
        {
          "indexed": true,
          "name": "operator",
          "type": "address"
        },
        {
          "indexed": false,
          "name": "role",
          "type": "string"
        }
      ],
      "name": "RoleRemoved",
      "type": "event"
    },
    {
      "anonymous": false,
      "inputs": [
        {
          "indexed": true,
          "name": "previousOwner",
          "type": "address"
        }
      ],
      "name": "OwnershipRenounced",
      "type": "event"
    },
    {
      "anonymous": false,
      "inputs": [
        {
          "indexed": true,
          "name": "previousOwner",
          "type": "address"
        },
        {
          "indexed": true,
          "name": "newOwner",
          "type": "address"
        }
      ],
      "name": "OwnershipTransferred",
      "type": "event"
    },
    {
      "constant": true,
      "inputs": [
        {
          "name": "_beneficiary",
          "type": "address"
        }
      ],
      "name": "getUserContribution",
      "outputs": [
        {
          "name": "",
          "type": "uint256"
        }
      ],
      "payable": false,
      "stateMutability": "view",
      "type": "function"
    }
  ],
  "bytecode": "0x608060405266071afd498d00006009556802b5e3af16b1880000600a5534801561002857600080fd5b5060405160c08061104c83398101604090815281516020830151918301516060840151608085015160a09095015160008054600160a060020a0319163317815593959293919291829082908590899089908990831161008657600080fd5b600160a060020a038216151561009b57600080fd5b600160a060020a03811615156100b057600080fd5b60049290925560038054600160a060020a03928316600160a060020a03199182161790915560028054929093169116179055600081116100ef57600080fd5b600655428210156100ff57600080fd5b8181101561010c57600080fd5b600791909155600855505050505050610f228061012a6000396000f3006080604052600436106101485763ffffffff7c01000000000000000000000000000000000000000000000000000000006000350416630988ca8c81146101535780631515bc2b146101ba57806318b919e9146101e3578063217fe6c61461026d57806324953eaa146102d4578063286dd3f5146103295780632c4e722e1461034a578063355274ea146103715780634042b66f1461038657806342e94c901461039b5780634b6753bc146103bc5780634f935945146103d1578063521eb273146103e6578063715018a6146104175780637b9417c81461042c5780638da5cb5b1461044d5780639b19251a14610462578063b25d7f5414610483578063b7a8807c14610498578063bb8b2b47146104ad578063e2ec6ec3146104ce578063ec8ac4d814610523578063ed5db87414610537578063f2fde38b1461054c578063fc0c546a1461056d575b61015133610582565b005b34801561015f57600080fd5b5060408051602060046024803582810135601f8101859004850286018501909652858552610151958335600160a060020a03169536956044949193909101919081908401838280828437509497506106249650505050505050565b3480156101c657600080fd5b506101cf610692565b604080519115158252519081900360200190f35b3480156101ef57600080fd5b506101f861069a565b6040805160208082528351818301528351919283929083019185019080838360005b8381101561023257818101518382015260200161021a565b50505050905090810190601f16801561025f5780820380516001836020036101000a031916815260200191505b509250505060405180910390f35b34801561027957600080fd5b5060408051602060046024803582810135601f81018590048502860185019096528585526101cf958335600160a060020a03169536956044949193909101919081908401838280828437509497506106bf9650505050505050565b3480156102e057600080fd5b5060408051602060048035808201358381028086018501909652808552610151953695939460249493850192918291850190849080828437509497506107349650505050505050565b34801561033557600080fd5b50610151600160a060020a0360043516610781565b34801561035657600080fd5b5061035f6107c8565b60408051918252519081900360200190f35b34801561037d57600080fd5b5061035f6107ce565b34801561039257600080fd5b5061035f6107d4565b3480156103a757600080fd5b5061035f600160a060020a03600435166107da565b3480156103c857600080fd5b5061035f6107ec565b3480156103dd57600080fd5b506101cf6107f2565b3480156103f257600080fd5b506103fb6107fd565b60408051600160a060020a039092168252519081900360200190f35b34801561042357600080fd5b5061015161080c565b34801561043857600080fd5b50610151600160a060020a0360043516610878565b34801561045957600080fd5b506103fb6108bc565b34801561046e57600080fd5b506101cf600160a060020a03600435166108cb565b34801561048f57600080fd5b5061035f6108fa565b3480156104a457600080fd5b5061035f610900565b3480156104b957600080fd5b5061035f600160a060020a0360043516610906565b3480156104da57600080fd5b5060408051602060048035808201358381028086018501909652808552610151953695939460249493850192918291850190849080828437509497506109219650505050505050565b610151600160a060020a0360043516610582565b34801561054357600080fd5b5061035f61096e565b34801561055857600080fd5b50610151600160a060020a0360043516610974565b34801561057957600080fd5b506103fb610994565b34600061058f83836109a3565b61059882610a1d565b6005549091506105ae908363ffffffff610a3416565b6005556105bb8382610a41565b60408051838152602081018390528151600160a060020a0386169233927f623b3804fa71d67900d064613da8f94b9617215ee90799290593e1745087ad18929081900390910190a361060d838361068e565b610615610a4b565b61061f838361068e565b505050565b61068e826001836040518082805190602001908083835b6020831061065a5780518252601f19909201916020918201910161063b565b51815160209384036101000a6000190180199092169116179052920194855250604051938490030190922092915050610a84565b5050565b600854421190565b6040805180820190915260098152600080516020610ed7833981519152602082015281565b600061072b836001846040518082805190602001908083835b602083106106f75780518252601f1990920191602091820191016106d8565b51815160209384036101000a6000190180199092169116179052920194855250604051938490030190922092915050610a99565b90505b92915050565b60008054600160a060020a0316331461074c57600080fd5b5060005b815181101561068e57610779828281518110151561076a57fe5b90602001906020020151610781565b600101610750565b600054600160a060020a0316331461079857600080fd5b6107c581604080519081016040528060098152602001600080516020610ed7833981519152815250610ab8565b50565b60045481565b60065481565b60055481565b600b6020526000908152604090205481565b60085481565b600654600554101590565b600354600160a060020a031681565b600054600160a060020a0316331461082357600080fd5b60008054604051600160a060020a03909116917ff8df31144d9c2f0f6b59d69b8b98abd5459d07f2742c4df920b25aae33c6482091a26000805473ffffffffffffffffffffffffffffffffffffffff19169055565b600054600160a060020a0316331461088f57600080fd5b6107c581604080519081016040528060098152602001600080516020610ed7833981519152815250610bc9565b600054600160a060020a031681565b600061072e82604080519081016040528060098152602001600080516020610ed78339815191528152506106bf565b60095481565b60075481565b600160a060020a03166000908152600b602052604090205490565b60008054600160a060020a0316331461093957600080fd5b5060005b815181101561068e57610966828281518110151561095757fe5b90602001906020020151610878565b60010161093d565b600a5481565b600054600160a060020a0316331461098b57600080fd5b6107c581610c9b565b600254600160a060020a031681565b6000806109b08484610d18565b600160a060020a0384166000908152600b602052604090205491506109db828463ffffffff610a3416565b905060095481101580156109f15750600a548111155b15156109fc57600080fd5b600160a060020a039093166000908152600b60205260409020929092555050565b600061072e60045483610d5090919063ffffffff16565b8181018281101561072e57fe5b61068e8282610d79565b600354604051600160a060020a03909116903480156108fc02916000818181858888f193505050501580156107c5573d6000803e3d6000fd5b610a8e8282610a99565b151561068e57600080fd5b600160a060020a03166000908152602091909152604090205460ff1690565b610b22826001836040518082805190602001908083835b60208310610aee5780518252601f199092019160209182019101610acf565b51815160209384036101000a6000190180199092169116179052920194855250604051938490030190922092915050610e1f565b81600160a060020a03167fd211483f91fc6eff862467f8de606587a30c8fc9981056f051b897a418df803a826040518080602001828103825283818151815260200191508051906020019080838360005b83811015610b8b578181015183820152602001610b73565b50505050905090810190601f168015610bb85780820380516001836020036101000a031916815260200191505b509250505060405180910390a25050565b610c33826001836040518082805190602001908083835b60208310610bff5780518252601f199092019160209182019101610be0565b51815160209384036101000a6000190180199092169116179052920194855250604051938490030190922092915050610e41565b81600160a060020a03167fbfec83d64eaa953f2708271a023ab9ee82057f8f3578d548c1a4ba0b5b7004898260405180806020018281038252838181518152602001915080519060200190808383600083811015610b8b578181015183820152602001610b73565b600160a060020a0381161515610cb057600080fd5b60008054604051600160a060020a03808516939216917f8be0079c531659141344cd1fd0a4f28419497f9722a3daafe3b4186f6b6457e091a36000805473ffffffffffffffffffffffffffffffffffffffff1916600160a060020a0392909216919091179055565b81610d4681604080519081016040528060098152602001600080516020610ed7833981519152815250610624565b61061f8383610e66565b6000821515610d615750600061072e565b50818102818382811515610d7157fe5b041461072e57fe5b600254604080517f40c10f19000000000000000000000000000000000000000000000000000000008152600160a060020a03858116600483015260248201859052915191909216916340c10f199160448083019260209291908290030181600087803b158015610de857600080fd5b505af1158015610dfc573d6000803e3d6000fd5b505050506040513d6020811015610e1257600080fd5b5051151561068e57600080fd5b600160a060020a0316600090815260209190915260409020805460ff19169055565b600160a060020a0316600090815260209190915260409020805460ff19166001179055565b6007544210158015610e7a57506008544211155b1515610e8557600080fd5b61068e8282610e948282610eb5565b600654600554610eaa908363ffffffff610a3416565b111561068e57600080fd5b600160a060020a0382161515610eca57600080fd5b80151561068e57600080fd0077686974656c6973740000000000000000000000000000000000000000000000a165627a7a7230582094a0872cf2d822c5425897e85517b8ac01abaeee3cd4e3fd41b96cb15f81949d0029",
  "source": "pragma solidity 0.4.24;\n\nimport \"openzeppelin-solidity/contracts/crowdsale/Crowdsale.sol\";\nimport \"openzeppelin-solidity/contracts/crowdsale/emission/MintedCrowdsale.sol\";\nimport \"openzeppelin-solidity/contracts/crowdsale/validation/CappedCrowdsale.sol\";\nimport \"openzeppelin-solidity/contracts/crowdsale/validation/TimedCrowdsale.sol\";\nimport \"openzeppelin-solidity/contracts/crowdsale/validation/WhitelistedCrowdsale.sol\";\n\ncontract DappTokenCrowdsale is Crowdsale, MintedCrowdsale, CappedCrowdsale, TimedCrowdsale, WhitelistedCrowdsale {\n\n  // Track investor contributions\n  uint256 public investorMinCap = 2000000000000000; // 0.002 ether\n  uint256 public investorHardCap = 50000000000000000000; // 50 ether\n  mapping(address => uint256) public contributions;\n\n  constructor(\n    uint256 _rate,\n    address _wallet,\n    ERC20 _token,\n    uint256 _cap,\n    uint256 _openingTime,\n    uint256 _closingTime\n  )\n    Crowdsale(_rate, _wallet, _token)\n    CappedCrowdsale(_cap)\n    TimedCrowdsale(_openingTime, _closingTime)\n    public\n  {\n\n  }\n\n  /**\n  * @dev Returns the amount contributed so far by a sepecific user.\n  * @param _beneficiary Address of contributor\n  * @return User contribution so far\n  */\n  function getUserContribution(address _beneficiary)\n    public view returns (uint256)\n  {\n    return contributions[_beneficiary];\n  }\n\n  /**\n  * @dev Extend parent behavior requiring purchase to respect investor min/max funding cap.\n  * @param _beneficiary Token purchaser\n  * @param _weiAmount Amount of wei contributed\n  */\n  function _preValidatePurchase(\n    address _beneficiary,\n    uint256 _weiAmount\n  )\n    internal\n  {\n    super._preValidatePurchase(_beneficiary, _weiAmount);\n    uint256 _existingContribution = contributions[_beneficiary];\n    uint256 _newContribution = _existingContribution.add(_weiAmount);\n    require(_newContribution >= investorMinCap && _newContribution <= investorHardCap);\n    contributions[_beneficiary] = _newContribution;\n  }\n\n}\n",
  "sourcePath": "/Users/gregory/code/ico_irl/contracts/DappTokenCrowdsale.sol",
  "compiler": {
    "name": "solc",
    "version": "0.4.24+commit.e67f0147.Emscripten.clang"
  },
  "schemaVersion": "2.0.0",
  "updatedAt": "2018-08-02T14:58:39.636Z"
}