{
  "contractName": "TokenTimelock",
  "abi": [
    {
      "constant": true,
      "inputs": [],
      "name": "beneficiary",
      "outputs": [
        {
          "name": "",
          "type": "address"
        }
      ],
      "payable": false,
      "stateMutability": "view",
      "type": "function"
    },
    {
      "constant": true,
      "inputs": [],
      "name": "releaseTime",
      "outputs": [
        {
          "name": "",
          "type": "uint256"
        }
      ],
      "payable": false,
      "stateMutability": "view",
      "type": "function"
    },
    {
      "constant": true,
      "inputs": [],
      "name": "token",
      "outputs": [
        {
          "name": "",
          "type": "address"
        }
      ],
      "payable": false,
      "stateMutability": "view",
      "type": "function"
    },
    {
      "inputs": [
        {
          "name": "_token",
          "type": "address"
        },
        {
          "name": "_beneficiary",
          "type": "address"
        },
        {
          "name": "_releaseTime",
          "type": "uint256"
        }
      ],
      "payable": false,
      "stateMutability": "nonpayable",
      "type": "constructor"
    },
    {
      "constant": false,
      "inputs": [],
      "name": "release",
      "outputs": [],
      "payable": false,
      "stateMutability": "nonpayable",
      "type": "function"
    }
  ],
  "bytecode": "0x608060405234801561001057600080fd5b5060405160608061034983398101604090815281516020830151919092015142811161003b57600080fd5b60008054600160a060020a03948516600160a060020a03199182161790915560018054939094169216919091179091556002556102cc8061007d6000396000f3006080604052600436106100615763ffffffff7c010000000000000000000000000000000000000000000000000000000060003504166338af3eed811461006657806386d1a69f14610097578063b91d4001146100ae578063fc0c546a146100d5575b600080fd5b34801561007257600080fd5b5061007b6100ea565b60408051600160a060020a039092168252519081900360200190f35b3480156100a357600080fd5b506100ac6100f9565b005b3480156100ba57600080fd5b506100c36101d3565b60408051918252519081900360200190f35b3480156100e157600080fd5b5061007b6101d9565b600154600160a060020a031681565b60025460009042101561010b57600080fd5b60008054604080517f70a082310000000000000000000000000000000000000000000000000000000081523060048201529051600160a060020a03909216926370a08231926024808401936020939083900390910190829087803b15801561017257600080fd5b505af1158015610186573d6000803e3d6000fd5b505050506040513d602081101561019c57600080fd5b50519050600081116101ad57600080fd5b6001546000546101d091600160a060020a0391821691168363ffffffff6101e816565b50565b60025481565b600054600160a060020a031681565b82600160a060020a031663a9059cbb83836040518363ffffffff167c01000000000000000000000000000000000000000000000000000000000281526004018083600160a060020a0316600160a060020a0316815260200182815260200192505050602060405180830381600087803b15801561026457600080fd5b505af1158015610278573d6000803e3d6000fd5b505050506040513d602081101561028e57600080fd5b5051151561029b57600080fd5b5050505600a165627a7a72305820f4e455169fface34304b52b0decc8716cb482fbd78e008e423bb77c6f773cc780029",
  "source": "pragma solidity ^0.4.23;\n\nimport \"./SafeERC20.sol\";\n\n\n/**\n * @title TokenTimelock\n * @dev TokenTimelock is a token holder contract that will allow a\n * beneficiary to extract the tokens after a given release time\n */\ncontract TokenTimelock {\n  using SafeERC20 for ERC20Basic;\n\n  // ERC20 basic token contract being held\n  ERC20Basic public token;\n\n  // beneficiary of tokens after they are released\n  address public beneficiary;\n\n  // timestamp when token release is enabled\n  uint256 public releaseTime;\n\n  constructor(\n    ERC20Basic _token,\n    address _beneficiary,\n    uint256 _releaseTime\n  )\n    public\n  {\n    // solium-disable-next-line security/no-block-members\n    require(_releaseTime > block.timestamp);\n    token = _token;\n    beneficiary = _beneficiary;\n    releaseTime = _releaseTime;\n  }\n\n  /**\n   * @notice Transfers tokens held by timelock to beneficiary.\n   */\n  function release() public {\n    // solium-disable-next-line security/no-block-members\n    require(block.timestamp >= releaseTime);\n\n    uint256 amount = token.balanceOf(this);\n    require(amount > 0);\n\n    token.safeTransfer(beneficiary, amount);\n  }\n}\n",
  "sourcePath": "openzeppelin-solidity/contracts/token/ERC20/TokenTimelock.sol",
  "compiler": {
    "name": "solc",
    "version": "0.4.24+commit.e67f0147.Emscripten.clang"
  },
  "schemaVersion": "2.0.0",
  "updatedAt": "2018-08-03T22:22:51.114Z"
}